:020000040000FA
:100000000C9473000C949B000C949B000C949B002C
:100010000C949B000C949B000C949B000C949B00F4
:100020000C949B000C949B000C949B000C949B00E4
:100030000C949B000C949B000C949B000C949B00D4
:100040000C940B090C949B000C94D9080C94B308E5
:100050000C949B000C949B000C949B000C949B00B4
:100060000C9455090C949B004552524F523A204E25
:100070006F2063616C6C6261636B20617661696C97
:1000800061626C6520666F72207061636B657420BD
:100090004944200000000000250028002B00040433
:1000A0000404040404040202020202020303030320
:1000B000030302020301020408102040800102042D
:1000C00008102001020408102040804000000009B0
:1000D000000302000004050800000000000000000A
:1000E00000000000740A11241FBECFEFD8E0DEBF6D
:1000F000CDBF11E0A0E0B1E0E0E3F0E302C0059085
:100100000D92A839B107D9F725E0A8E9B1E001C0FF
:100110001D92A039B207E1F710E0C3E7D0E004C0B8
:100120002197FE010E94CB15C237D107C9F70E9463
:10013000440B0C9416180C9400009091A502911198
:10014000FCCF91E09093A5024093A4022FEF20935F
:10015000A3021092A202260F2093A1029093A00264
:100160009091A002880F892B8093A00280919F021A
:100170008130F9F410929F028091A0028093BB001D
:100180008091BC0083FDF8CF85EC8093BC0080910A
:10019000A5028130E1F38091A202861710F46091EC
:1001A000A202AFE7B2E0EFE5F2E080E0861303C021
:1001B000089585EEEACF9D9191938F5FF7CF982FA9
:1001C00020915E0281E0213208F043C08091A502B7
:1001D0008111FCCF80915D0232E03093A5029093B3
:1001E000A4029FEF9093A3021092A2022093A10277
:1001F000ADE3B2E0EFE7F2E090E0291331C01092F6
:10020000A0029091A002880F892B8093A002809178
:100210009F02813049F510929F028091A002809345
:10022000BB008091BC0083FDF8CF85EC8093BC00BF
:100230008091A5028230E1F38091A3028F3FB1F05B
:100240008091A3028032A1F08091A302803391F0CB
:1002500084E010923C0210925E0210923B020895DC
:100260003D9131939F5FC9CF85EEE0CF80E0F1CF24
:1002700082E0EFCF83E0EDCF80913602909137029C
:10028000891B990B0895FC01DB019C919150492F2A
:100290004F3FC9F0242F30E0DF01A20FB31F8C9134
:1002A0008E3711F04150F4CF9F3F69F0492F50E055
:1002B000DF01A40FB51F8C918E3719F4291B2C93E5
:1002C000292F9150F1CF08950F931F93CF93DF9370
:1002D0001F92CDB7DEB720913402309135022F3F07
:1002E000310508F46AC08FEF80937A050BE613E0BE
:1002F000F80180E091919E3709F05AC080937A0509
:1003000066E071E08BE693E00E9443012091530385
:100310003091540389E694E0E0E0D8014D918D01DD
:10032000E427E20FF32FF11DE0818A179B07A9F75D
:100330001092680580917A05809369058EEF80930D
:100340006A05E0936B051EEF809186059091870505
:10035000DC01ED91FC910280F381E02D44E050E05E
:1003600067E675E009958091860590918705412F94
:1003700050E0DC01ED91FC910280F381E02D6BE611
:1003800073E009958091860590918705DC01ED91D8
:10039000FC910280F381E02D42E050E06BE675E0D5
:1003A0000995812F0F90DF91CF911F910F910895A3
:1003B0008F5F8E3F09F09ECFA3CF922F8FEF809358
:1003C0007A05EBE6F3E080E0891728F441914E3797
:1003D00029F580937A052983BE016F5F7F4F8BE6F5
:1003E00093E00E9443012091340230913502122F94
:1003F0004091530350915403ABE6B3E080E0B90160
:100400007727FD01EB56F340E617F70748F4ED9127
:10041000E827E40FF52FF11D8081F3CF8F5FD4CF54
:100420001092680590917A059093690520936A056A
:1004300080936B0589CF90E0FC01E453FF4F24913A
:10044000FC01EB54FF4F3491FC01E256FF4FE49165
:10045000EE23B1F0222339F02430E9F090F4223079
:1004600051F1233061F1F0E0EE0FFF1FEC56FF4F2A
:10047000A591B4918FB7F894EC913E2B3C938FBF2C
:100480000895283071F0293091F0253061F780917E
:1004900080008F7D03C0809180008F7780938000E3
:1004A000E2CF8091B0008F778093B000DCCF809155
:1004B000B0008F7DF9CF84B58F7784BDD4CF84B55C
:1004C0008F7DFBCF08950895109237021092360267
:1004D00010923C0210925E021092A50281E080937D
:1004E000A40210929F0282E10E941B0283E10E94FB
:1004F0001B02E9EBF0E080818E7F808380818D7F1D
:10050000808380E28093B80085E48093BC0082E61B
:1005100092E0909333028093320283E692E09093CC
:100520003102809330020895AF92BF92CF92DF9252
:10053000EF92FF920F931F93CF93DF936C017B0198
:100540008B01040F151FEB015E01AE18BF08C01729
:10055000D10759F06991D601ED91FC910190F0819C
:10056000E02DC6010995892B79F7C501DF91CF915F
:100570001F910F91FF90EF90DF90CF90BF90AF90C1
:100580000895FC01538D448D252F30E0842F90E099
:10059000821B930B541710F0CF960895019708957E
:1005A000FC01918D828D981761F0A28DAE0FBF2F47
:1005B000B11D5D968C91928D9F5F9F73928F90E09D
:1005C00008958FEF9FEF0895FC01918D828D98170C
:1005D00031F0828DE80FF11D858D90E008958FEF49
:1005E0009FEF0895FC01918D228D892F90E0805C12
:1005F0009F4F821B91098F739927089586EA92E095
:100600000E94F20221E0892B09F420E0822F089554
:1006100080E090E0892B29F00E94FE0281110C9469
:1006200000000895FC01A48DA80FB92FB11DA35A95
:10063000BF4F2C91848D90E001968F739927848F02
:10064000A689B7892C93A089B1898C9180648C93F9
:10065000938D848D981306C00288F389E02D8081E4
:100660008F7D80830895EF92FF920F931F93CF9316
:10067000DF93EC0181E0888F9B8D8C8D981316C0E1
:10068000E889F989808185FF11C0EE89FF8960833F
:10069000E889F98980818064808381E090E0DF913E
:1006A000CF911F910F91FF90EF900895F62E0B8D33
:1006B00010E00F5F1F4F0F731127E02E8C8D8E11EE
:1006C0000CC00FB607FCFACFE889F989808185FF55
:1006D000F5CFCE010E941203F1CFEB8DEC0FFD2F71
:1006E000F11DE35AFF4FF0820B8FEA89FB8980816D
:1006F0008062D2CFCF93DF93EC01888D8823B9F04D
:10070000AA89BB89E889F9898C9185FD03C080811C
:1007100086FD0DC00FB607FCF7CF8C9185FFF2CF99
:10072000808185FFEDCFCE010E941203E9CFDF91DA
:10073000CF9108953FB7F8948091DC019091DD014D
:10074000A091DE01B091DF0126B5A89B05C02F3F27
:1007500019F00196A11DB11D3FBFBA2FA92F982FE7
:100760008827BC01CD01620F711D811D911D43E0E1
:10077000660F771F881F991F4A95D1F708958F92AA
:100780009F92AF92BF92CF92DF92EF92FF924B0176
:100790005C010E949A036B017C010E949A036C1910
:1007A0007D098E099F09683E734081059105A8F374
:1007B00021E0821A9108A108B10888EEC80E83E0F2
:1007C000D81EE11CF11C81149104A104B10429F785
:1007D000FF90EF90DF90CF90BF90AF909F908F9061
:1007E000089585ED8093BC008091BC0084FDFCCF12
:1007F0001092A50208952091B801260F3327331FC8
:1008000021323105ECF42091A502FC0190E080E05A
:10081000243069F082E00895A091B8012191AC01E3
:1008200048565E4FA40FB52FB11D2C930196861725
:1008300098F38091B801680F6093B80180E0089543
:1008400081E008950895E091370280913602E8171B
:1008500030F4F0E0E15AFD4F808190E008958FEF91
:100860009FEF089590913702809136022FEF3FEF6E
:10087000981748F4E92FF0E0E15AFD4F208130E06D
:100880009F5F90933702C9010895CF92DF92EF9254
:10089000FF920F931F93CF93DF937C01CB018A01CB
:1008A00020913B02222389F0EB016B01C40ED51E7F
:1008B000CC15DD0569F06991D701ED91FC910190AE
:1008C000F081E02DC7010995F3CF642F0E94FB034F
:1008D000C801DF91CF911F910F91FF90EF90DF90B2
:1008E000CF900895CF93DF931F92CDB7DEB7698382
:1008F00020913B022223F9F020915E02203258F031
:1009000021E030E0FC013383228390E080E00F900F
:10091000DF91CF91089580913C02E82FF0E0E35CF5
:10092000FD4F998190838F5F80933C0280935E029C
:1009300081E090E0ECCF61E0CE0101960E94FB03E4
:10094000F7CF81E00C94DF0090E080E008951F93E2
:10095000CF93DF93EA01122FDC0111968D919C91C8
:10096000DC01ED91FC910280F381E02D0995C8171F
:10097000D90729F4812F0E94DF0091E0811190E0D6
:10098000892FDF91CF911F910895CF93DF93EC01D1
:100990008B818823A9F089819A81288131E0309365
:1009A0003B0220935D0210923C0210925E020E9474
:1009B000A10491E0811190E0892FDF91CF910895FA
:1009C0000E94640281E08B83CE010E94C504982FAF
:1009D0008111E1CFF1CF0F931F93CF93C82F809157
:1009E000670391E090933B0280935D0210923C027A
:1009F00010925E026C2F0C2E000C770B605C7F4F08
:100A000083E493E00E94720483E493E00E94A104D3
:100A1000CF70C43009F451C00CF03FC0CC2309F4AE
:100A200047C063E070E080E090E0C230F1F1809177
:100A3000670391E090933B0280935D0210923C0229
:100A400010925E0260E083E493E00E94720483E40B
:100A500093E00E94A10441E063E0809167030E945B
:100A60009D00C82F10923702809336028091370282
:100A7000C81769F183E493E00E94320480933A023C
:100A800083E493E00E9432048093390283E493E08C
:100A90000E94320480933802E9CFC63099F06AE0B0
:100AA00070E080E090E0C83011F60E94BF03BFCF35
:100AB00061E070E080E090E0F8CF64E070E080E01A
:100AC00090E0F3CF66E070E080E090E0EECF6091E0
:100AD0003A0270E090E080E0CB0177276627009132
:100AE000390210E030E020E0322F212F102F0027B4
:100AF000600F711F821F931F20913802620F711DBA
:100B0000811D911DCF911F910F910895CF93DF9378
:100B100000D0CDB7DEB789836A8380916903909155
:100B20006A03FC01248135812230310590F0208157
:100B300031E030933B0220935D0210923C02109210
:100B40005E0221E042E050E0BE016F5F7F4F0E94F5
:100B5000A7040F900F90DF91CF910895BF92CF928D
:100B6000DF92EF92FF920F931F93CF93DF93DC01FD
:100B70001496ED91FC911597EF2B09F44BC0E90108
:100B8000C52EB42E8C01FC01808191E090933B0234
:100B900080935D0210923C0210925E0220E041E0E0
:100BA00050E0CD010E94A704D82E882399F1D801E6
:100BB00014968D919C9115978C179D0758F141E0E3
:100BC0006C2F8C910E949D00109237028093360208
:100BD0008C171D06F9F4EB2CFC2CCE0DDF1DF80153
:100BE00081819281DC01ED91FC910284F385E02DFD
:100BF0000995F70181937F01CE17DF0781F78D2DCE
:100C0000DF91CF911F910F91FF90EF90DF90CF90E8
:100C1000BF900895D12CF3CFCF93DF9300D0CDB701
:100C2000DEB71A821982898322E030E0AE014F5F7D
:100C30005F4FBA018091690390916A030E94AE05EB
:100C400089819A819827892798270F900F90DF91A3
:100C5000CF910895CF93DF931F92CDB7DEB78983ED
:100C600021E030E0AE014F5F5F4FBA018091690330
:100C700090916A030E94AE0589810F90DF91CF9118
:100C800008958EEFEBE6F3E0DF01982F1D929A9521
:100C9000E9F7E9E6F4E0DF011D928A95E9F71092A1
:100CA0006D0583E080936E0510927C0510927D05A2
:100CB00010927E0510927F0508958091860590918F
:100CC0008705DC01ED91FC910084F185E02D09950B
:100CD000892B61F08091860590918705DC01ED916B
:100CE000FC910284F385E02D0995E7CF0E9441062F
:100CF00080916E05809385050895FB010190002089
:100D0000E9F73197AF01461B570BDC01ED91FC91E0
:100D10000280F381E02D09948F929F92AF92BF924F
:100D2000EF92FF920F931F93CF93DF93CDB7DEB770
:100D3000A1970FB6F894DEBF0FBECDBF7C01FA01BC
:100D4000CB0119A2223008F42AE08E010F5D1F4F5B
:100D5000822E912CB12CA12CBF01A50194010E94DF
:100D6000A915F901CA016A300CF5605DD8016E93CE
:100D70008D01232B242B252B79F790E080E0109711
:100D800021F0BD01C7010E947D06A1960FB6F8941F
:100D9000DEBF0FBECDBFDF91CF911F910F91FF90AE
:100DA000EF90BF90AF909F908F900895695CDECFD9
:100DB0000F931F93CF93DF93EC010E947D068C016C
:100DC0006BE271E0CE010E947D06800F911FDF91E2
:100DD000CF911F910F910895CF92DF92EF92FF92E2
:100DE000CF93DF93DC01FB0140917C0550917D05A1
:100DF00060917E0570917F05452B462B472B39F47A
:100E00008081811147C010926D0581E075C08FB758
:100E1000F89440912C0250912D0260912E02709115
:100E20002F028FBFC0907C05D0907D05E0907E059D
:100E3000F0907F054C195D096E097F09C09080050F
:100E4000D0908105E0908205F09083054C155D05FA
:100E50006E057F05A8F280917605882341F06EE249
:100E600071E080917405909175050E94D8061092EA
:100E70006D051092700510926F058DEF80936E05D1
:100E800010927C0510927D0510927E0510927F05D0
:100E900080E0EDC0E0916F05F0917005E730F1055D
:100EA00008F025C1EA5AF84F0C94CB155D077F076F
:100EB00089078F07AF07C307F7078C918E37C9F4EF
:100EC00081E090E09093700580936F052FB7F894C0
:100ED00080912C0290912D02A0912E02B0912F02B0
:100EE0002FBF80937C0590937D05A0937E05B093E2
:100EF0007F0510926D0583E080936E05C9CF8C91BC
:100F00008093790582E090E09093700580936F055F
:100F1000F0CF8C9180937B0583E090E0F5CF8C91AE
:100F20009FEF980F9E3F38F48093770510927805D5
:100F300084E090E0E9CF10926D0510927005109258
:100F40006F058FEF80936E058091760562E471E006
:100F5000811146C00E94410680916D0588C0809134
:100F6000780590917705891720F62C91E82FF0E00D
:100F7000E759FB4F20838F5F809378059813B9CF93
:100F800085E090E0C1CF4091770560915303709167
:100F90005403C9E6D4E030E020E080E050E02417BC
:100FA000350748F4E991E827E60FF72FF11D808116
:100FB0002F5F3F4FF4CF9C91981303C086E090E0E1
:100FC000A3CF10926D051092700510926F051092CC
:100FD0006E058091760567E571E0882309F4BACF44
:100FE00080917405909175050E94D806B3CF109238
:100FF000700510926F058C91813809F06BC080915B
:101000007B058F3F69F02EE7E82FF0E0E759FB4FB3
:101010009081992319F02083890FF6CF8EE7808382
:101020008091770580936D0582E080936E05209115
:101030007105309172052115310579F0809179059E
:10104000909173058917D0F490E0880F991F820F53
:10105000931FDC01ED91FC91099510927C05109293
:101060007D0510927E0510927F0580917705DF91B6
:10107000CF91FF90EF90DF90CF900895809176050B
:10108000882359F3E0907405F0907505C8E6D0E028
:10109000FE016491662359F0D701ED91FC91019016
:1010A000F081E02DC70109952196892B89F7C09120
:1010B0007405D09175054091790550E070E060E0CD
:1010C0002AE0CE010E948C066BE271E0CE010E9404
:1010D0007D06C3CF10926D058EEF80936E058091D3
:1010E0007605882309F436CF68E671E079CF8091E0
:1010F0007605882389F16FE771E0809174059091FE
:1011000075050E947D06C0917405D0917505C0904B
:101110006F05D09070050D2C000CEE08FF082AE03A
:10112000B701A601F7FE10C0E881F9810190F081B6
:10113000E02D6DE2CE01099544275527BA014C19DF
:101140005D096E097F092AE0CE010E948C066BE2E0
:1011500071E0CE010E947D060E944106109270054A
:1011600010926F05C6CE1F920F920FB60F921124E8
:101170002F933F934F935F936F937F938F939F939F
:10118000AF93BF93EF93FF9386EA92E00E9412031E
:10119000FF91EF91BF91AF919F918F917F916F914F
:1011A0005F914F913F912F910F900FBE0F901F9025
:1011B00018951F920F920FB60F9211242F938F93B1
:1011C0009F93EF93FF93E091B602F091B702808175
:1011D000E091BC02F091BD0282FD1BC09081809124
:1011E000BF028F5F8F732091C002821741F0E091A0
:1011F000BF02F0E0EA55FD4F958F8093BF02FF914B
:10120000EF919F918F912F910F900FBE0F901F9094
:1012100018958081F4CF1F920F920FB60F92112470
:101220002F933F938F939F93AF93BF9380912C0203
:1012300090912D02A0912E02B0912F023091DB01EE
:1012400026E0230F2D3768F129E8230F0396A11D0F
:10125000B11D2093DB0180932C0290932D02A0936B
:101260002E02B0932F028091DC019091DD01A091BC
:10127000DE01B091DF010196A11DB11D8093DC015B
:101280009093DD01A093DE01B093DF01BF91AF9198
:101290009F918F913F912F910F900FBE0F901F90B4
:1012A00018950296A11DB11DD4CF1F920F920FB6B3
:1012B0000F9211242F933F934F935F936F937F93DC
:1012C0008F939F93AF93BF93EF93FF938091B90058
:1012D000887F803609F44AC0F0F5883209F4A7C047
:1012E00018F5803109F49BC0B8F4882309F4F9C0DB
:1012F000883009F494C0FF91EF91BF91AF919F9115
:101300008F917F916F915F914F913F912F910F90AE
:101310000FBE0F901F901895883109F488C0803255
:1013200051F78093A30214C0803409F49DC040F4A7
:101330008033B9F38833F9F68093A30285ECB0C00B
:10134000803509F485C0883509F496C0883499F64B
:101350000E94F103D0CF883909F48CC038F5883762
:1013600029F050F4883611F0803729F683E0809315
:10137000A5021092DA0157C0883809F47BC0803981
:1013800019F0803809F0B7CF8091DA01803208F087
:1013900071C0E091DA0181E08E0F8093DA018091D3
:1013A000BB00F0E0E654FE4F80833DC0803B39F047
:1013B000E0F4803A09F479C0883A09F09CCF84E0DF
:1013C0008093A5021092B9011092B801E091320207
:1013D000F091330209958091B80181110FC081E02D
:1013E0008093B8011092980109C0803C09F4A6CFFF
:1013F000883C09F4A3CF883B09F07DCFE091B90187
:1014000081E08E0F8093B901F0E0E856FE4F8081B5
:101410008093BB009091B9018091B80129C080915F
:10142000A0028093BB0085EC8093BC0064CF9091B8
:10143000A2028091A102981758F5E091A20281E0E2
:101440008E0F8093A202F0E0E158FD4F8081E9CF3A
:10145000E091A20281E08E0F8093A2028091BB00F6
:10146000F0E0E158FD4F80839091A2028091A102AB
:101470009817C8F285E8D8CFE091A20281E08E0FDC
:101480008093A2028091BB00F0E0E158FD4F808381
:101490008091A40281115CCF81E080939F0284EA55
:1014A0008093BC001092A50226CF85EC8093BC00EF
:1014B0001092A5028091DA01803230F4E091DA01D5
:1014C000F0E0E654FE4F10826091DA0170E0E091A6
:1014D0003002F09131028AEB91E009951092DA0125
:1014E0000ACF1092A30234CF1092A9021092A80240
:1014F00088EE93E0A0E0B0E08093AA029093AB0264
:10150000A093AC02B093AD022BE031E03093A70280
:101510002093A60225EC30E03093B3022093B20270
:1015200024EC30E03093B5022093B40220EC30E09C
:101530003093B7022093B60221EC30E03093B90229
:101540002093B80222EC30E03093BB022093BA0221
:1015500026EC30E03093BD022093BC021092BF0213
:101560001092C0021092C1021092C2021092460361
:10157000109245038093470390934803A093490337
:10158000B0934A038DE191E0909344038093430329
:101590008BE980934F0388E08093520380E091E0D1
:1015A00090935103809350030E94F116909354033B
:1015B0008093530330E020E08091500390915103D9
:1015C00028173907E0F4C90160914F0370E048E043
:1015D00050E0FC01E078FF27880F991FEF2B11F0F6
:1015E0008627972741505109A1F7E0915303F091C5
:1015F0005403E20FF31F80832F5F3F4FDDCF8EE751
:1016000080936705109268051092690510926A052B
:1016100010926B0581E880936C0510926D05109215
:101620006E051092700510926F051092720510925F
:10163000710510927305109276051092770510923D
:1016400078051092790510927A0510927B05109218
:101650007C0510927D0510927E0510927F051092F8
:1016600084051092850510926A031092690385E043
:101670008093680386E78093670380E090E190930E
:101680006603809365030895CF93DF93CDB7DEB7EC
:1016900067970FB6F894DEBF0FBECDBF789484B5C0
:1016A000836084BD85B5836085BD80916E00816057
:1016B00080936E0092E09093810080918100816020
:1016C0008093810080918000816080938000809170
:1016D000B10084608093B1008091B00081608093FC
:1016E000B00086E880937A001092C10026EA32E0CA
:1016F000E091B602F091B7029083E091B202F091CE
:10170000B3021082E091B402F091B50287E68083C3
:101710001092BE02E091BA02F091BB0286E0808393
:10172000E091B802F091B902808188698083E091EC
:10173000B802F091B90280818F7D80833093870554
:101740002093860582E390E0A0E0B0E080938805D6
:1017500090938905A0938A05B0938B053093750506
:101760002093740521E02093760580938005909363
:101770008105A0938205B0938305809169039091C0
:101780006A03009711F00E948D1786E090E00E9496
:10179000F1168C0183E1D8018C9383E493E01296D7
:1017A0009C938E93119713961C92139780E290E06E
:1017B00015969C938E93149710936A030093690374
:1017C0000E94640281E0F8018383C8010E94C5047D
:1017D000182F811159C010E010932A0265E083E8A8
:1017E0000E9486050E9464028091670391E09093B5
:1017F0003B0280935D0210923C0210925E026EE109
:1018000083E493E00E94720483E493E00E94A104C5
:101810006AE070E080E090E00E94BF0308E012E020
:10182000680180EAB82EAA24A39480916703A0924D
:101830003B0280935D0210923C0210925E026B2D7F
:1018400083E493E00E94720483E493E00E94A10485
:1018500041E062E0809167030E949D00982E109203
:1018600037028093360280913702981609F183E49B
:1018700093E00E94320480933A0283E493E00E9452
:10188000320480933802EFCF81E80E942A06807FDD
:10189000803209F0A0CF64E183E80E94860563E00E
:1018A00082E80E94860568E089E80E94860594CF58
:1018B00080913A0290E0982F882720913802820F79
:1018C000911DD6018D939D936D01B394B394B0EBAC
:1018D000BB12ABCF4091160250911702742F7F704C
:1018E000CA018827909317028093160290E080E047
:1018F00030E020E0F901EE7FE85FFD4FA0816181DB
:1019000020FF23C08A2768E0FC01880F991FF7FF9A
:1019100002C0E0E39E276150B9F72F5F3F4F2031AF
:10192000310541F7509317024093160292959F702C
:1019300028E132E0D8014D915D918D01452B49F4AC
:101940002A173B07B9F780E007C0F12C86279F25AF
:10195000DACF81E07913F7CF809329021A82BFEFA3
:10196000B9838091860590918705DC01ED91FC910A
:101970000084F185E02D0995892B09F457C0B1E069
:10198000BA838091860590918705DC01ED91FC91E9
:101990000084F185E02D0995892BF1F08091860571
:1019A00090918705DC01ED91FC910284F385E02D97
:1019B00009958983BE016E5F7F4FCE0101960E941B
:1019C000EC068093840580916E05809385058330B5
:1019D000C1F287FD0E945D068091840581110C94FF
:1019E0007F1580912B02813079F580912A02880F32
:1019F00090912902890F8093280280936B03E1E084
:101A0000F0E0F0933502E09334020E9464011092FA
:101A10002B02A0E0B0E0AB2B09F4A0CF0E94FE02A5
:101A2000882309F49BCF0E94000098CFBE016E5F0F
:101A30007F4FCE0101960E94EC0680938405809131
:101A40006E0580938505C5CF823019F780916503B7
:101A5000909166038115F1E09F0709F0C3C180E012
:101A60000E94EB0460935D0370935E0380935F03B9
:101A70009093600380E10E94EB0460936103709394
:101A800062038093630390936403809112029091A8
:101A90001302B0E0A0E0BA2FA92F982F8827409119
:101AA00061035091620360916303709164038A0142
:101AB0009B01081B190B2A0B3B0B0B831C832D83EB
:101AC0003E83609114027091150290E080E0A901BC
:101AD00098010E943416F22E032F142FB52FF62FE3
:101AE000E72FD82EE92EA0E00E94C21684F42150E0
:101AF000310940485F4F6F4F7F4F8F4F9F4FF22EFE
:101B0000032F142FB52FF62FE72FD82EE92E2F2DC8
:101B1000302F412F5B2F6F2F7E2F8D2D9E2D07E1B4
:101B20000E94871619012A012053384F4F4F5F4FEB
:101B30002C873D874E875F87309168033B874C85B4
:101B40005D856E857F85403D5740610571050CF0D0
:101B5000E2C3353009F4CAC23E3009F487C13230DD
:101B600009F08AC56B817C818D819E819B01AC01CE
:101B70000E943416F22E032F142FB52FF62FE72FC5
:101B8000D82EE92EA0E00E94C21684F4215031091B
:101B9000410950486F4F7F4F8F4F9F4FF22E032FB9
:101BA000142FB52FF62FE72FD82EE92E2F2D302FFB
:101BB000412F5B2F6F2F7E2F8D2D9E2D0FE10E94C9
:101BC000871649015A018092000290920102A09268
:101BD0000202B0920302BB0C8808982C5401809238
:101BE00004028092050280920602809207026C85B0
:101BF0007D858E859F85605D7740810991099B0178
:101C0000AC010E9485156B017C01ADE3B0E0AC0135
:101C10009B010E94D1158B019C0144E035952795CD
:101C2000179507954A95D1F70093F8011093F9019C
:101C30002093FA013093FB012B013C01770C4408FF
:101C4000542C32014092FC014092FD014092FE0171
:101C50004092FF01CC0CDD1CEE1CFF1CC092F00179
:101C6000D092F101E092F201F092F301C701B601C6
:101C7000990F660B762FCB01688B798B8A8B9B8BA8
:101C80006093F40178897093F5017093F601709375
:101C9000F7010C851D852E853F8504321A4F2F4F85
:101CA0003F4F0CF46FC5609110027091110290E0EB
:101CB00080E02B813C814D815E810E943416F22EA2
:101CC000032F142FB52FF62FE72FD82EE92EA0E0E3
:101CD0000E94C2165CF4AFE30E94AD16F22E032FF1
:101CE000142FB52FF62FE72FD82EE92E2F2D302FBA
:101CF000412F5B2F6F2F7E2F8D2D9E2D06E00E9492
:101D0000871639014A01B62FA72FF82FE92FA09087
:101D10000C02B0900D02950140E050E060E070E0F0
:101D200080E090E001E10E946E1659016A017B019A
:101D30008C019301A4016B2F7A2F8F2F9E2F0E946D
:101D4000A4162093E8013093E9014093EA015093EF
:101D5000EB016093EC017093ED018093EE019093A1
:101D6000EF0160910E0270910F0290E080E02B81F4
:101D70003C814D815E810E943416F22E032F142F78
:101D8000B52FF62FE72FD82EE92EA0E00E94C2161D
:101D90005CF4AFE70E94AD16F22E032F142FB52F7F
:101DA000F62FE72FD82EE92E2F2D302F412F5B2F26
:101DB0006F2F7E2F8D2D9E2D07E00E9487163901F3
:101DC0004A01B62FA72FF82FE92FA0900A02B09052
:101DD0000B02950140E050E060E070E080E090E0B0
:101DE00000E165C1811502E0900769F482E00E947C
:101DF000EB0460935D0370935E0380935F039093A5
:101E0000600382E138CE811514E0910769F484E023
:101E10000E94EB0460935D0370935E0380935F0305
:101E20009093600384E127CE811528E0920769F43E
:101E300086E00E94EB0460935D0370935E038093E1
:101E40005F039093600386E116CE8115904109F0FF
:101E50001CCE88E00E94EB0460935D0370935E03E8
:101E600080935F039093600388E105CE6B817C8152
:101E70008D819E819B01AC010E943416E3E0AE2E61
:101E8000B12CC12CD12CE12CF12C00E010E00E94EF
:101E9000DC1501E20E9489162093000230930102B2
:101EA0004093020250930302609304027093050270
:101EB0008093060290930702A2019101C201B10131
:101EC0000E9485156B01A3E0B0E0AC019B010E946C
:101ED000D1158B019C013595279517950795009392
:101EE000F8011093F9012093FA013093FB01DC0112
:101EF000CB01BB0F880B982FDC018093FC018093F2
:101F0000FD018093FE018093FF01A5E0B0E0960102
:101F10000E94D1158B019C0143E0359527951795BB
:101F200007954A95D1F70093F0011093F1012093A2
:101F3000F2013093F301DC01CB01BB0F880B982F2A
:101F4000DC018093F4018093F5018093F601809386
:101F5000F7010C851D852E853F8504321A4F2F4FC2
:101F60003F4F0CF497C3609110027091110290E002
:101F700080E02B813C814D815E810E943416F22EDF
:101F8000032F142FB52FF62FE72FD82EE92EA0E020
:101F90000E94C2165CF4AFE70E94AD16F22E032F2A
:101FA000142FB52FF62FE72FD82EE92E2F2D302FF7
:101FB000412F5B2F6F2F7E2F8D2D9E2D07E00E94CE
:101FC000871639014A01B62FA72FF82FE92FA090C5
:101FD0000C02B0900D02950140E050E060E070E02E
:101FE00080E090E000E10E946E1659016A017B01D9
:101FF0008C019301A4016B2F7A2F8F2F9E2F0E94AB
:10200000A4162093E8013093E9014093EA0150932C
:10201000EB016093EC017093ED018093EE019093DE
:10202000EF0160910E0270910F0290E080E02B8131
:102030003C814D815E810E943416F22E032F142FB5
:10204000B52FF62FE72FD82EE92EA0E00E94C2165A
:1020500084F421503F4F4F4F5F4F6F4F7F4F8F4F53
:102060009F4FF22E032F142FB52FF62FE72FD82EC8
:10207000E92E2F2D302F412F5B2F6F2F7E2F8D2D8F
:102080009E2D08E00E94871639014A01B62FA72F1E
:10209000F82FE92FA0900A02B0900B02D12CC12C8E
:1020A0009501A60160E070E080E090E00FE00E9402
:1020B0006E1659016A017B018C019301A4016B2FFB
:1020C0007A2F8F2F9E2F0E94A4162093E001309329
:1020D000E1014093E2015093E3016093E4017093C6
:1020E000E5018093E6019093E70158C16B817C8103
:1020F0008D819E819B01AC010E943416F3E0AF2ECE
:10210000B12CC12CD12CE12CF12C00E010E00E946C
:10211000DC1501E20E94891620930002309301022F
:1021200040930202509303026093040270930502ED
:102130008093060290930702A2019101C201B101AE
:102140000E9485156B01A3E0B0E0AC019B010E94E9
:10215000D1158B019C01A3E035952795179507951F
:10216000AA95D1F70093F8011093F9012093FA0191
:102170003093FB01DC01CB01BB0F880B982FDC01F6
:102180008093FC018093FD018093FE018093FF0109
:10219000A7E0B0E096010E94D1158B019C0143E0BD
:1021A00035952795179507954A95D1F70093F00136
:1021B0001093F1012093F2013093F301DC01CB0184
:1021C000BB0F880B982FDC018093F4018093F501FD
:1021D0008093F6018093F7016091100270911102D3
:1021E00090E080E02B813C814D815E810E9434161D
:1021F000F22E032F142FB52FF62FE72FD82EE92E0E
:10220000A0E00E94C2165CF4AFE10E94AD16F22E6F
:10221000032F142FB52FF62FE72FD82EE92E2F2DB1
:10222000302F412F5B2F6F2F7E2F8D2D9E2D05E0A0
:102230000E94871639014A01B62FA72FF82FE92FE0
:10224000A0900C02B0900D02950140E050E060E0DB
:1022500070E080E090E002E10E946E1659016A0190
:102260007B018C019301A4016B2F7A2F8F2F9E2F5E
:102270000E94A4162093E8013093E9014093EA01FB
:102280005093EB016093EC017093ED018093EE01AC
:102290009093EF0160910E0270910F0290E080E048
:1022A0002B813C814D815E810E943416F22E032FDA
:1022B000142FB52FF62FE72FD82EE92EA0E00E947D
:1022C000C2165CF4AFE70E94AD16F22E032F142F56
:1022D000B52FF62FE72FD82EE92E2F2D302F412F97
:1022E0005B2F6F2F7E2F8D2D9E2D07E00E9487166E
:1022F00039014A01B62FA72FF82FE92FA0900A0223
:10230000B0900B02950140E050E060E070E080E0AA
:1023100090E001E1CCCE5B85553031F05E3009F4C0
:102320004FC1523009F0A8C1109200021092010270
:1023300010920202109203021092040210920502FF
:1023400010920602109207021092F8011092F90101
:102350001092FA011092FB011092FC011092FD0103
:102360001092FE011092FF011092F0011092F10103
:102370001092F2011092F3011092F4011092F50103
:102380001092F6011092F701EB85E53009F424CFA5
:10239000EE3009F4E8CDE23009F485CC80910002FA
:1023A00090910102A0910202B09103020C851D855B
:1023B0002E853F85081B190B2A0B3B0B0C871D87AD
:1023C0002E873F870093590310935A0320935B0392
:1023D00030935C032091E8013091E9014091EA01DA
:1023E0005091EB016091EC017091ED018091EE0153
:1023F0009091EF01A090F801B090F901C090FA011E
:10240000D090FB01E090FC01F090FD010091FE01F5
:102410001091FF010E94B916722E632E542E452E84
:10242000962E872E382E292E2093E8013093E9012D
:102430004093EA015093EB016093EC017093ED013E
:102440008093EE019093EF012091E0013091E10142
:102450004091E2015091E3016091E4017091E50146
:102460008091E6019091E701A090F001B090F10118
:10247000C090F201D090F301E090F401F090F501EA
:102480000091F6011091F7010E94B91659016A01F5
:102490007B018C012093E001B092E1014093E201C5
:1024A000D092E3016093E401F092E5018093E601AC
:1024B0001093E7012B85253031F02E3009F4D5C17A
:1024C000223009F051C260915D0370915E038091EA
:1024D0005F0390916003AB019A01AC0160E070E092
:1024E000CB012B833C834D835E836F837887898701
:1024F0009A8760E070E080E090E00E94DC15F22EA8
:10250000032F142FB52FF62FE72FD82EE92EA0E09A
:102510000E94C21684F421503109404E5F4F6F4F24
:102520007F4F8F4F9F4FF22E032F142FB52FF62F73
:10253000E72FD82EE92E2F2D302F412F5B2F6F2F15
:102540007E2F8D2D9E2D05E10E948716A72CB62C7F
:10255000C52CD42CE92CF82C032D122D0E94B91671
:10256000F22E032F142FB52FF62FE72FD82EE92E9A
:10257000A0E00E94C21684F4215030484F4F5F4FB4
:102580006F4F7F4F8F4F9F4FF22E032F142FB52F7A
:10259000F62FE72FD82EE92E2F2D302F412F5B2F2E
:1025A0006F2F7E2F8D2D9E2D0FE00E94871620937A
:1025B0005503309356034093570350935803D4C1A7
:1025C0006B817C818D819E819B01AC010E943416C0
:1025D000E7E0AE2EB12CC12CD12CE12CF12C00E087
:1025E00010E00E94DC1505E20E948916209300028B
:1025F000309301024093020250930302609304025D
:10260000709305028093060290930702A201910144
:10261000C201B1010E9485158B019C01F4E0359542
:10262000279517950795FA95D1F70093F801109320
:10263000F9012093FA013093FB01DC01CB01BB0FC0
:10264000880B982FDC018093FC018093FD0180931F
:10265000FE018093FF011092F0011092F10110929F
:10266000F2011092F3011092F4011092F501109210
:10267000F6011092F70177CC6C857D858E859F855C
:1026800064327A4F8F4F9F4F0CF07ECEBB85BE30A9
:1026900009F07ACE6C857D858E859F8564527A4F50
:1026A0008F4F9F4F9B01AC010E9485152B013C0170
:1026B000A7E0B0E0AC019B010E94D1156B017C0149
:1026C000FF0CCC08DC2C76019B01AC016C2D7C2D21
:1026D0008C2D9C2DA090F801B090F901C090FA01CA
:1026E000D090FB01E090FC01F090FD010091FE0113
:1026F0001091FF010E94A4162093F8013093F90174
:102700004093FA015093FB016093FC017093FD012B
:102710008093FE019093FF0152E0440C551C661C0F
:10272000771C5A95D1F773016201FF0CCC08DC2CA1
:1027300076019201A3016C2D7C2D8C2D9C2DA090F7
:10274000F001B090F101C090F201D090F301E0905F
:10275000F401F090F5010091F6011091F7010E944B
:10276000A4162093F0013093F1014093F2015093AD
:10277000F3016093F4017093F5018093F601909357
:10278000F701F1CB6C857D858E859F8564527A4FEC
:102790008F4F9F4F9B01AC010E9485156C8B7D8BE9
:1027A0008E8B9F8BA4E1B0E09B01AC010E94D11500
:1027B0006B017C01FF0CCC08DC2C76019B01AC0189
:1027C0006C2D7C2D8C2D9C2DA090F801B090F901E2
:1027D000C090FA01D090FB01E42CF42C042D142DB0
:1027E0000E94A4162093F8013093F9014093FA0156
:1027F0005093FB016093FC017093FD018093FE01F7
:102800009093FF01ACE0B0E02C893D894E895F894F
:102810000E94D1156B017C01FF0CCC08DC2C7601E9
:102820009B01AC016C2D7C2D8C2D9C2DA090F0017A
:10283000B090F101C090F201D090F301E888FE2C35
:102840000E2D1E2D0E94A4162093F0013093F1014D
:102850004093F2015093F3016093F4017093F501FA
:102860008093F6019093F7011ECA40915D03509149
:102870005E0360915F03709160039A01AB0160E0B9
:1028800070E0CB012B833C834D835E836F8378871D
:1028900089879A8760E070E080E090E00E94DC1514
:1028A000F22E032F142FB52FF62FE72FD82EE92E57
:1028B000A0E00E94C21684F421503109404E5F4FBF
:1028C0006F4F7F4F8F4F9F4FF22E032F142FB52F37
:1028D000F62FE72FD82EE92E2F2D302F412F5B2FEB
:1028E0006F2F7E2F8D2D9E2D05E10E948716A72C20
:1028F000B62CC52CD42CE92CF82C032D122D0E94BB
:10290000B916F22E032F142FB52FF62FE72FD82E3E
:10291000E92EA0E00E94C21684F4215030484F4FA7
:102920005F4F6F4F7F4F8F4F9F4FF22E032F142F0C
:10293000B52FF62FE72FD82EE92E2F2D302F412F30
:102940005B2F6F2F7E2F8D2D9E2D0FE00E948716FF
:10295000AAE0B0E00E94D11560935503709356032E
:1029600080935703909358038091550380931C02E2
:102970008091560380931D02909157039F7180911F
:102980001E02807E892B80931E028C859D856AE0C5
:1029900070E00E94951586E09FEFAFEFBFEF6630C5
:1029A0005FEF75076CF0CB01770FAA0BBB0B8B3F6A
:1029B0009105A105B10524F08AEF90E0A0E0B0E018
:1029C000382F3295330F307E209122022F71232B26
:1029D00020932202382F3695369536952091230282
:1029E000207893709295990F907E822F832B892B5C
:1029F000809323028EE80E942A06682F6F7B8EE860
:102A00000E94860560E180E80E94860580E80E94B9
:102A10002A0686FF66C085E80E940C06382F32958C
:102A2000330F307E20911E022F71232B20931E0224
:102A3000292F2295220F207E869586958695822BBA
:102A400080931F02892F8695869586959091200206
:102A5000907E982B909320028EE80E942A06682F81
:102A60006F778EE80E94860568E080E80E94860500
:102A700080E80E942A0685FF3BC087E80E940C067A
:102A8000382F3295330F307E209120022F71232B67
:102A900020932002292F2295220F207E869586954D
:102AA0008695822B80932102892F8695869586951F
:102AB00090912202907E982B90932202E8E1F2E01E
:102AC000ABE6B3E081918D9368E272E06E177F0709
:102AD000C9F780E190E090933502809334020C9422
:102AE000050D61E070E080E090E00E94BF038ECFB2
:102AF00061E070E080E090E00E94BF03B9CF809178
:102B0000690480932B020C94F10CDB018F939F934B
:102B10000E94D115BF91AF91A29F800D911DA39FDF
:102B2000900DB29F900D1124089597FB072E16F477
:102B3000009407D077FD09D00E94CE1607FC05D07F
:102B40003EF4909581959F4F0895709561957F4FC4
:102B50000895A1E21A2EAA1BBB1BFD010DC0AA1FDE
:102B6000BB1FEE1FFF1FA217B307E407F50720F0F6
:102B7000A21BB30BE40BF50B661F771F881F991F71
:102B80001A9469F760957095809590959B01AC01BA
:102B9000BD01CF010895EE0FFF1F0590F491E02DC8
:102BA00009940E94E216A59F900DB49F900DA49FDA
:102BB000800D911D11240895DF93CF931F930F93E0
:102BC0009A9DF02D219FF00D8B9DF00D8A9DE02D9B
:102BD000F10D039FF00D029FE00DF11D4E9DE00DE4
:102BE000F11D5E9DF00D4F9DF00D7F936F93BF9291
:102BF000AF925F934F93D5010E94E2168B01AC0117
:102C0000D7010E94E216EB01E80FF91FD6010E94DE
:102C10002B162F913F91D6010E94E216C60FD71FA7
:102C2000E81FF91FAF91BF910E942B162F913F9182
:102C30000E94E216C60FD71FE81FF91FD6010E9497
:102C4000E216E60FF71F9801BE01CF010F911F9109
:102C5000CF91DF9108950E94E216460F571FC81FBB
:102C6000D91F08F43196089597FB57FF0C9444162A
:102C70009F938F930E9444166E1B7F0BAF91BF9161
:102C80008A0B9B0B0895E894DF93CF93FC01DB0143
:102C90000E94E2167F936F93E9019A01AC01BF9302
:102CA000AF933F932F93DF010E94E21626F46C1B33
:102CB0007D0B820B930B9E01EB01FC010E942B16F6
:102CC000AF91BF912F913F910E942B16BE01CF0172
:102CD000F9012F913F91CF91DF910895002E083097
:102CE00090F0982F872F762F652F542F432F322F58
:102CF00022270850F4CF220F331F441F551F661F91
:102D0000771F881F991F0A95B2F7002D089597FD28
:102D10001094002E083098F00850232F342F452FA0
:102D2000562F672F782F892F912DF4CF15949795D3
:102D300087957795679557954795379527950A9580
:102D4000AAF71124002D08952A0D3B1D4C1D5D1D71
:102D50006E1D7F1D801F911F08950024A7FD009404
:102D60002A0F301D401D501D601D701D801D901DBF
:102D700008952A193B094C095D096E097F09800BEA
:102D8000910B08950024A7FD00942A1730054005F3
:102D9000500560057005800590050895AA1BBB1BB2
:102DA00051E107C0AA1FBB1FA617B70710F0A61B4B
:102DB000B70B881F991F5A95A9F780959095BC016C
:102DC000CD010895A29FB001B39FC001A39F700DD4
:102DD000811D1124911DB29F700D811D1124911D23
:102DE00008950F931F93CF93DF938230910510F4D2
:102DF00082E090E0E0918E05F0918F0530E020E0D8
:102E0000B0E0A0E0309799F42115310509F44AC0EB
:102E1000281B390B24303105D8F58A819B81611537
:102E2000710589F1FB0193838283FE0111C040810A
:102E300051810281138148175907E0F0481759075B
:102E400099F4109761F012960C93129713961C93B5
:102E50003296CF01DF91CF911F910F91089500938A
:102E60008E0510938F05F4CF2115310551F04217CF
:102E7000530738F0A901DB019A01BD01DF01F80118
:102E8000C1CFEF01F9CF90938F0580938E05CDCF01
:102E9000FE01E20FF31F8193919322503109398390
:102EA0002883D7CF20918C0530918D05232B41F4B9
:102EB000209102013091030130938D0520938C0500
:102EC00020910001309101012115310541F42DB708
:102ED0003EB74091040150910501241B350BE09150
:102EE0008C05F0918D05E217F307A0F42E1B3F0B24
:102EF0002817390778F0AC014E5F5F4F241735076C
:102F000048F04E0F5F1F50938D0540938C058193C1
:102F100091939FCFF0E0E0E09CCFCF93DF930097B9
:102F2000E9F0FC01329713821282A0918E05B091D4
:102F30008F05ED0130E020E01097A1F42081318170
:102F4000820F931F20918C0530918D05281739072A
:102F500009F061C0F0938D05E0938C05DF91CF916E
:102F60000895EA01CE17DF07E8F54A815B819E01EB
:102F700041155105B1F7E901FB83EA834991599164
:102F8000C40FD51FEC17FD0761F480819181029673
:102F9000840F951FE90199838883828193819B83A4
:102FA0008A83F0E0E0E012968D919C911397009750
:102FB000B9F52D913C911197CD010296820F931F87
:102FC00020918C0530918D052817390739F63097F7
:102FD00051F510928F0510928E05B0938D05A09338
:102FE0008C05BCCFD383C28340815181840F951F50
:102FF000C817D90761F44E5F5F4F88819981480FE8
:10300000591F518340838A819B8193838283211539
:10301000310509F0B0CFF0938F05E0938E059ECF78
:10302000FD01DC01C0CF13821282D7CFF894FFCF0D
:10303000000090058000FE0000000033039402C1F0
:10304000027A03F202D002E402000000007204459A
:1030500004A40422043C01320423040D0A00455256
:10306000524F523A205354414C45205041434B4516
:1030700054004552524F523A205041594C4F41440E
:103080005F4552524F52004552524F523A204352DE
:10309000435F4552524F52004552524F523A2053CD
:1030A000544F505F425954455F4552524F5200456C
:1030B00052524F523A20556E646566696E656420BF
:0830C0007374617465200000C7
:107E000001C0B7C0112484B790E89093610010922C
:107E10006100882361F0982F9A70923041F081FFC1
:107E200002C097EF94BF282E80E0C6D0E9C085E05D
:107E30008093810082E08093C00088E18093C1003C
:107E400080E18093C40086E08093C2008EE0B4D0CD
:107E5000259A84E028E13EEF91E03093850020935D
:107E6000840096BBB09BFECF1D9AA8954091C000A0
:107E700047FD02C0815089F793D0813479F490D0C6
:107E8000182FA0D0123811F480E004C088E0113817
:107E900009F083E07ED080E17CD0EECF823419F40B
:107EA00084E198D0F8CF853411F485E0FACF853598
:107EB00041F476D0C82F74D0D82FCC0FDD1F82D0DC
:107EC000EACF863519F484E085D0DECF843691F58B
:107ED00067D066D0F82E64D0D82E00E011E05801AB
:107EE0008FEFA81AB80A5CD0F80180838501FA10D8
:107EF000F6CF68D0F5E4DF1201C0FFCF50E040E0DC
:107F000063E0CE0136D08E01E0E0F1E06F0182E067
:107F1000C80ED11C4081518161E0C8012AD00E5F9A
:107F20001F4FF601FC10F2CF50E040E065E0CE01BB
:107F300020D0B1CF843771F433D032D0F82E30D086
:107F400041D08E01F80185918F0123D0FA94F11070
:107F5000F9CFA1CF853739F435D08EE11AD085E934
:107F600018D08FE097CF813509F0A9CF88E024D0D1
:107F7000A6CFFC010A0167BFE895112407B600FCF3
:107F8000FDCF667029F0452B19F481E187BFE89594
:107F900008959091C00095FFFCCF8093C60008958E
:107FA0008091C00087FFFCCF8091C00084FD01C09C
:107FB000A8958091C6000895E0E6F0E098E19083EE
:107FC00080830895EDDF803219F088E0F5DFFFCF80
:107FD00084E1DFCFCF93C82FE3DFC150E9F7CF9122
:027FE000F1CFDF
:027FFE00000879
:00000001FF
